:1000000000000320D1010000D55300008D530000F3
:100010008D5300008D5300008D5300008D53000060
:100020008D5300008D5300008D530000D553000008
:10003000D55300008D530000755C0000795D000011
:10004000D5530000D5530000D5530000D553000010
:10005000D5530000D5530000D5530000D553000000
:10006000D5530000D5530000D5530000D5530000F0
:10007000D5530000D5530000D5530000D5530000E0
:10008000D5530000D5530000D5530000D5530000D0
:10009000D5530000D5530000D5530000D5530000C0
:1000A000D5530000D5530000D5530000D5530000B0
:1000B000D5530000D5530000D5530000ED54000087
:1000C000D553000019560000D553000045570000D5
:1000D000D55300003D580000D5530000D553000013
:1000E000D5530000D5530000D5530000D553000070
:1000F000D5530000D5530000D5530000D553000060
:10010000D5530000D5530000D5530000D55300004F
:10011000D553000089400000D5530000D55300009E
:10012000D5530000D5530000D5530000D55300002F
:10013000D5530000D5530000D5530000D55300001F
:10014000D5530000D553000035590000D5530000A9
:10015000D5530000D5530000D5530000D5530000FF
:10016000D5530000D5530000D5530000D5530000EF
:10017000D5530000D5530000D5530000D5530000DF
:10018000D5530000D5530000D5530000D5530000CF
:10019000D5530000D55300002D5A0000D553000060
:1001A000D5530000D5530000D5530000D5530000AF
:1001B000D5530000D5530000D5530000D55300009F
:1001C000D5530000D5530000D5530000D55300008F
:1001D0005C4B4CF2205210B51A804DF628121A8052
:1001E00000BF00BF05F0FAF8574B4FF030621A60BD
:1001F000564A9A60564ADA60564B4FF470021A60BB
:10020000554B564A1A60564A136813F4807304D14A
:1002100054490B604FF4A8531360534B1A781107DD
:1002200003D51A7842F008021A70504B5049AA229E
:100230001A70504A504B8B4204D252F8040F43F8C4
:10024000040BF8E74D4B4E4900228B4202D243F893
:10025000042BFAE74B494C4A002352F8230041F89B
:1002600023000133742BF8D1484B494A802103F80D
:10027000011B9342FBD1474B424A1A60464B8A22EC
:100280001A70A3F5805324225A70A0221A709A790A
:100290009207FCD59A79D406FCD4404A937903F0AE
:1002A0000C03082BFAD13E4B60221A7002331A78E5
:1002B000802AFCD1394B01221A715D225A719A7938
:1002C0009006FCD59979354A4906FBD5354B364918
:1002D00019600021596020231370937903F00C03F7
:1002E0000C2BFAD1314B324A1A60324B324A1A6027
:1002F00000225A60072243F8042C304AC3F80C2D20
:1003000062B603F031FD174B1B68DA0705D52C48A0
:1003100003F01AFB2B4B2C4A1A602C4B1B785B0604
:1003200009D5284C284B22689A4204D1244803F06E
:100330000BFB0023236005F039FD05F055F804F0B0
:100340003BFEFEE70E20054030800440823F040063
:100350000100002B88ED00E0002008E0030000858C
:1003600010D0034014D0034002D0074000E0074003
:10037000C412FF1F006B00003007FF1FC412FF1FD5
:100380009818FF1F0002FF1F0000000000E400E0BB
:1003900064E400E008ED00E0005006400040064044
:1003A00001E007404480044000000602048004404D
:1003B000C010070014E000E01FBF02000000202072
:1003C0001FC9625C1CE00340A5C3945A00F00740BB
:1003D000FFFFFFFFFFFFFFFFFFFFFFFFFFFFFFFF2D
:1003E000FFFFFFFFFFFFFFFFFFFFFFFFFFFFFFFF1D
:1003F000FFFFFFFFFFFFFFFFFFFFFFFFFFFFFFFF0D
:10040000FFFFFFFFFFFFFFFFFFFFFFFFDEF9FFFF23
:1004100010B5054C237833B9044B13B10448AFF33E
:1004200000800123237010BDC412FF1F00000000D4
:10043000046B0000084B10B51BB108490848AFF326
:1004400000800848036803B910BD074B002BFBD0A0
:10045000BDE81040184700BF00000000C812FF1F91
:10046000046B0000C412FF1F0000000008B5052146
:10047000054804F09DFC054804F0A6FD72B6044B47
:10048000044A1A6008BD00BF00670000C809FF1FCA
:100490000CED00E00400FA05214B10B4D3F8E02085
:1004A0001368506819780478507A137A044201EA84
:1004B00003011BD0937A03F0030309B143F0040353
:1004C00043F008039910013B91720D2B0BD8DFE824
:1004D00003F021071B070A152121150A071B072115
:1004E000D368013BD3605DF8044B7047937A03F007
:1004F00003030029E6D043F00403E3E7D3685DF883
:10050000044B023BD3607047D3685DF8044B023361
:10051000D3607047D3685DF8044B0133D3607047F4
:100520003013FF1F214B10B4D3F8E4201368506838
:1005300019780478507A137A044201EA03011BD037
:10054000937A03F0030309B143F0040343F0080373
:100550009910013B91720D2B0BD8DFE803F02107B6
:100560001B070A152121150A071B0721D368013B28
:10057000D3605DF8044B7047937A03F003030029BE
:10058000E6D043F00403E3E7D3685DF8044B023B95
:10059000D3607047D3685DF8044B0233D360704773
:1005A000D3685DF8044B0133D36070473013FF1FED
:1005B000214B10B4D3F8E8201368506819780478F8
:1005C000507A137A044201EA03011BD0937A03F0B4
:1005D000030309B143F0040343F008039910013BFE
:1005E00091720D2B0BD8DFE803F021071B070A15CA
:1005F0002121150A071B0721D368013BD3605DF851
:10060000044B7047937A03F003030029E6D043F0CC
:100610000403E3E7D3685DF8044B023BD360704703
:10062000D3685DF8044B0233D3607047D3685DF83C
:10063000044B0133D36070473013FF1F214B10B4BC
:10064000D3F8EC201368506819780478507A137A3C
:10065000044201EA03011BD0937A03F0030309B1BA
:1006600043F0040343F008039910013B91720D2BF2
:100670000BD8DFE803F021071B070A152121150A13
:10068000071B0721D368013BD3605DF8044B70471B
:10069000937A03F003030029E6D043F00403E3E771
:1006A000D3685DF8044B023BD3607047D3685DF8B4
:1006B000044B0233D3607047D3685DF8044B0133B9
:1006C000D36070473013FF1F214B10B41A681368B2
:1006D000506819780478507A137A044201EA0301C9
:1006E0001BD0937A03F0030309B143F0040343F0F2
:1006F00008039910013B91720D2B0BD8DFE803F032
:1007000021071B070A152121150A071B0721D3689A
:10071000013BD3605DF8044B7047937A03F0030309
:100720000029E6D043F00403E3E7D3685DF8044B07
:10073000023BD3607047D3685DF8044B0233D3604B
:100740007047D3685DF8044B0133D360704700BF36
:100750003013FF1F214B10B45A6813685068197882
:100760000478507A137A044201EA03011BD0937A89
:1007700003F0030309B143F0040343F008039910A5
:10078000013B91720D2B0BD8DFE803F021071B070B
:100790000A152121150A071B0721D368013BD360E5
:1007A0005DF8044B7047937A03F003030029E6D009
:1007B00043F00403E3E7D3685DF8044B023BD360E6
:1007C0007047D3685DF8044B0233D3607047D36839
:1007D0005DF8044B0133D360704700BF3013FF1F37
:1007E000214B10B49A681368506819780478507ACD
:1007F000137A044201EA03011BD0937A03F0030346
:1008000009B143F0040343F008039910013B9172CE
:100810000D2B0BD8DFE803F021071B070A15212158
:10082000150A071B0721D368013BD3605DF8044B11
:100830007047937A03F003030029E6D043F00403E2
:10084000E3E7D3685DF8044B023BD3607047D3689D
:100850005DF8044B0233D3607047D3685DF8044BF6
:100860000133D360704700BF3013FF1F214B10B41A
:10087000DA681368506819780478507A137A044259
:1008800001EA03011BD0937A03F0030309B143F09B
:10089000040343F008039910013B91720D2B0BD810
:1008A000DFE803F021071B070A152121150A071BA2
:1008B0000721D368013BD3605DF8044B7047937AFE
:1008C00003F003030029E6D043F00403E3E7D36811
:1008D0005DF8044B023BD3607047D3685DF8044B6E
:1008E0000233D3607047D3685DF8044B0133D360A3
:1008F000704700BF3013FF1F214B10B41A691368F3
:10090000506819780478507A137A044201EA030196
:100910001BD0937A03F0030309B143F0040343F0BF
:1009200008039910013B91720D2B0BD8DFE803F0FF
:1009300021071B070A152121150A071B0721D36868
:10094000013BD3605DF8044B7047937A03F00303D7
:100950000029E6D043F00403E3E7D3685DF8044BD5
:10096000023BD3607047D3685DF8044B0233D36019
:100970007047D3685DF8044B0133D360704700BF04
:100980003013FF1F214B10B45A691368506819784F
:100990000478507A137A044201EA03011BD0937A57
:1009A00003F0030309B143F0040343F00803991073
:1009B000013B91720D2B0BD8DFE803F021071B07D9
:1009C0000A152121150A071B0721D368013BD360B3
:1009D0005DF8044B7047937A03F003030029E6D0D7
:1009E00043F00403E3E7D3685DF8044B023BD360B4
:1009F0007047D3685DF8044B0233D3607047D36807
:100A00005DF8044B0133D360704700BF3013FF1F04
:100A1000214B10B49A691368506819780478507A99
:100A2000137A044201EA03011BD0937A03F0030313
:100A300009B143F0040343F008039910013B91729C
:100A40000D2B0BD8DFE803F021071B070A15212126
:100A5000150A071B0721D368013BD3605DF8044BDF
:100A60007047937A03F003030029E6D043F00403B0
:100A7000E3E7D3685DF8044B023BD3607047D3686B
:100A80005DF8044B0233D3607047D3685DF8044BC4
:100A90000133D360704700BF3013FF1F214B10B4E8
:100AA000DA691368506819780478507A137A044226
:100AB00001EA03011BD0937A03F0030309B143F069
:100AC000040343F008039910013B91720D2B0BD8DE
:100AD000DFE803F021071B070A152121150A071B70
:100AE0000721D368013BD3605DF8044B7047937ACC
:100AF00003F003030029E6D043F00403E3E7D368DF
:100B00005DF8044B023BD3607047D3685DF8044B3B
:100B10000233D3607047D3685DF8044B0133D36070
:100B2000704700BF3013FF1F214B10B41A6A1368BF
:100B3000506819780478507A137A044201EA030164
:100B40001BD0937A03F0030309B143F0040343F08D
:100B500008039910013B91720D2B0BD8DFE803F0CD
:100B600021071B070A152121150A071B0721D36836
:100B7000013BD3605DF8044B7047937A03F00303A5
:100B80000029E6D043F00403E3E7D3685DF8044BA3
:100B9000023BD3607047D3685DF8044B0233D360E7
:100BA0007047D3685DF8044B0133D360704700BFD2
:100BB0003013FF1F214B10B45A6A1368506819781C
:100BC0000478507A137A044201EA03011BD0937A25
:100BD00003F0030309B143F0040343F00803991041
:100BE000013B91720D2B0BD8DFE803F021071B07A7
:100BF0000A152121150A071B0721D368013BD36081
:100C00005DF8044B7047937A03F003030029E6D0A4
:100C100043F00403E3E7D3685DF8044B023BD36081
:100C20007047D3685DF8044B0233D3607047D368D4
:100C30005DF8044B0133D360704700BF3013FF1FD2
:100C4000214B10B49A6A1368506819780478507A66
:100C5000137A044201EA03011BD0937A03F00303E1
:100C600009B143F0040343F008039910013B91726A
:100C70000D2B0BD8DFE803F021071B070A152121F4
:100C8000150A071B0721D368013BD3605DF8044BAD
:100C90007047937A03F003030029E6D043F004037E
:100CA000E3E7D3685DF8044B023BD3607047D36839
:100CB0005DF8044B0233D3607047D3685DF8044B92
:100CC0000133D360704700BF3013FF1F214B10B4B6
:100CD000DA6A1368506819780478507A137A0442F3
:100CE00001EA03011BD0937A03F0030309B143F037
:100CF000040343F008039910013B91720D2B0BD8AC
:100D0000DFE803F021071B070A152121150A071B3D
:100D10000721D368013BD3605DF8044B7047937A99
:100D200003F003030029E6D043F00403E3E7D368AC
:100D30005DF8044B023BD3607047D3685DF8044B09
:100D40000233D3607047D3685DF8044B0133D3603E
:100D5000704700BF3013FF1F214B10B41A6B13688C
:100D6000506819780478507A137A044201EA030132
:100D70001BD0937A03F0030309B143F0040343F05B
:100D800008039910013B91720D2B0BD8DFE803F09B
:100D900021071B070A152121150A071B0721D36804
:100DA000013BD3605DF8044B7047937A03F0030373
:100DB0000029E6D043F00403E3E7D3685DF8044B71
:100DC000023BD3607047D3685DF8044B0233D360B5
:100DD0007047D3685DF8044B0133D360704700BFA0
:100DE0003013FF1F214B10B45A6B136850681978E9
:100DF0000478507A137A044201EA03011BD0937AF3
:100E000003F0030309B143F0040343F0080399100E
:100E1000013B91720D2B0BD8DFE803F021071B0774
:100E20000A152121150A071B0721D368013BD3604E
:100E30005DF8044B7047937A03F003030029E6D072
:100E400043F00403E3E7D3685DF8044B023BD3604F
:100E50007047D3685DF8044B0233D3607047D368A2
:100E60005DF8044B0133D360704700BF3013FF1FA0
:100E7000214B10B49A6B1368506819780478507A33
:100E8000137A044201EA03011BD0937A03F00303AF
:100E900009B143F0040343F008039910013B917238
:100EA0000D2B0BD8DFE803F021071B070A152121C2
:100EB000150A071B0721D368013BD3605DF8044B7B
:100EC0007047937A03F003030029E6D043F004034C
:100ED000E3E7D3685DF8044B023BD3607047D36807
:100EE0005DF8044B0233D3607047D3685DF8044B60
:100EF0000133D360704700BF3013FF1F214B10B484
:100F0000DA6B1368506819780478507A137A0442BF
:100F100001EA03011BD0937A03F0030309B143F004
:100F2000040343F008039910013B91720D2B0BD879
:100F3000DFE803F021071B070A152121150A071B0B
:100F40000721D368013BD3605DF8044B7047937A67
:100F500003F003030029E6D043F00403E3E7D3687A
:100F60005DF8044B023BD3607047D3685DF8044BD7
:100F70000233D3607047D3685DF8044B0133D3600C
:100F8000704700BF3013FF1F214B10B41A6C136859
:100F9000506819780478507A137A044201EA030100
:100FA0001BD0937A03F0030309B143F0040343F029
:100FB00008039910013B91720D2B0BD8DFE803F069
:100FC00021071B070A152121150A071B0721D368D2
:100FD000013BD3605DF8044B7047937A03F0030341
:100FE0000029E6D043F00403E3E7D3685DF8044B3F
:100FF000023BD3607047D3685DF8044B0233D36083
:101000007047D3685DF8044B0133D360704700BF6D
:101010003013FF1F214B10B45A6C136850681978B5
:101020000478507A137A044201EA03011BD0937AC0
:1010300003F0030309B143F0040343F008039910DC
:10104000013B91720D2B0BD8DFE803F021071B0742
:101050000A152121150A071B0721D368013BD3601C
:101060005DF8044B7047937A03F003030029E6D040
:1010700043F00403E3E7D3685DF8044B023BD3601D
:101080007047D3685DF8044B0233D3607047D36870
:101090005DF8044B0133D360704700BF3013FF1F6E
:1010A000214B10B49A6C1368506819780478507A00
:1010B000137A044201EA03011BD0937A03F003037D
:1010C00009B143F0040343F008039910013B917206
:1010D0000D2B0BD8DFE803F021071B070A15212190
:1010E000150A071B0721D368013BD3605DF8044B49
:1010F0007047937A03F003030029E6D043F004031A
:10110000E3E7D3685DF8044B023BD3607047D368D4
:101110005DF8044B0233D3607047D3685DF8044B2D
:101120000133D360704700BF3013FF1F214B10B451
:10113000DA6C1368506819780478507A137A04428C
:1011400001EA03011BD0937A03F0030309B143F0D2
:10115000040343F008039910013B91720D2B0BD847
:10116000DFE803F021071B070A152121150A071BD9
:101170000721D368013BD3605DF8044B7047937A35
:1011800003F003030029E6D043F00403E3E7D36848
:101190005DF8044B023BD3607047D3685DF8044BA5
:1011A0000233D3607047D3685DF8044B0133D360DA
:1011B000704700BF3013FF1F214B10B41A6D136826
:1011C000506819780478507A137A044201EA0301CE
:1011D0001BD0937A03F0030309B143F0040343F0F7
:1011E00008039910013B91720D2B0BD8DFE803F037
:1011F00021071B070A152121150A071B0721D368A0
:10120000013BD3605DF8044B7047937A03F003030E
:101210000029E6D043F00403E3E7D3685DF8044B0C
:10122000023BD3607047D3685DF8044B0233D36050
:101230007047D3685DF8044B0133D360704700BF3B
:101240003013FF1F214B10B45A6D13685068197882
:101250000478507A137A044201EA03011BD0937A8E
:1012600003F0030309B143F0040343F008039910AA
:10127000013B91720D2B0BD8DFE803F021071B0710
:101280000A152121150A071B0721D368013BD360EA
:101290005DF8044B7047937A03F003030029E6D00E
:1012A00043F00403E3E7D3685DF8044B023BD360EB
:1012B0007047D3685DF8044B0233D3607047D3683E
:1012C0005DF8044B0133D360704700BF3013FF1F3C
:1012D000214B10B49A6D1368506819780478507ACD
:1012E000137A044201EA03011BD0937A03F003034B
:1012F00009B143F0040343F008039910013B9172D4
:101300000D2B0BD8DFE803F021071B070A1521215D
:10131000150A071B0721D368013BD3605DF8044B16
:101320007047937A03F003030029E6D043F00403E7
:10133000E3E7D3685DF8044B023BD3607047D368A2
:101340005DF8044B0233D3607047D3685DF8044BFB
:101350000133D360704700BF3013FF1F214B10B41F
:10136000DA6D1368506819780478507A137A044259
:1013700001EA03011BD0937A03F0030309B143F0A0
:10138000040343F008039910013B91720D2B0BD815
:10139000DFE803F021071B070A152121150A071BA7
:1013A0000721D368013BD3605DF8044B7047937A03
:1013B00003F003030029E6D043F00403E3E7D36816
:1013C0005DF8044B023BD3607047D3685DF8044B73
:1013D0000233D3607047D3685DF8044B0133D360A8
:1013E000704700BF3013FF1F214B10B41A6E1368F3
:1013F000506819780478507A137A044201EA03019C
:101400001BD0937A03F0030309B143F0040343F0C4
:1014100008039910013B91720D2B0BD8DFE803F004
:1014200021071B070A152121150A071B0721D3686D
:10143000013BD3605DF8044B7047937A03F00303DC
:101440000029E6D043F00403E3E7D3685DF8044BDA
:10145000023BD3607047D3685DF8044B0233D3601E
:101460007047D3685DF8044B0133D360704700BF09
:101470003013FF1F214B10B45A6E1368506819784F
:101480000478507A137A044201EA03011BD0937A5C
:1014900003F0030309B143F0040343F00803991078
:1014A000013B91720D2B0BD8DFE803F021071B07DE
:1014B0000A152121150A071B0721D368013BD360B8
:1014C0005DF8044B7047937A03F003030029E6D0DC
:1014D00043F00403E3E7D3685DF8044B023BD360B9
:1014E0007047D3685DF8044B0233D3607047D3680C
:1014F0005DF8044B0133D360704700BF3013FF1F0A
:10150000214B10B49A6E1368506819780478507A99
:10151000137A044201EA03011BD0937A03F0030318
:1015200009B143F0040343F008039910013B9172A1
:101530000D2B0BD8DFE803F021071B070A1521212B
:10154000150A071B0721D368013BD3605DF8044BE4
:101550007047937A03F003030029E6D043F00403B5
:10156000E3E7D3685DF8044B023BD3607047D36870
:101570005DF8044B0233D3607047D3685DF8044BC9
:101580000133D360704700BF3013FF1F214B10B4ED
:10159000DA6E1368506819780478507A137A044226
:1015A00001EA03011BD0937A03F0030309B143F06E
:1015B000040343F008039910013B91720D2B0BD8E3
:1015C000DFE803F021071B070A152121150A071B75
:1015D0000721D368013BD3605DF8044B7047937AD1
:1015E00003F003030029E6D043F00403E3E7D368E4
:1015F0005DF8044B023BD3607047D3685DF8044B41
:101600000233D3607047D3685DF8044B0133D36075
:10161000704700BF3013FF1F214B10B41A6F1368BF
:10162000506819780478507A137A044201EA030169
:101630001BD0937A03F0030309B143F0040343F092
:1016400008039910013B91720D2B0BD8DFE803F0D2
:1016500021071B070A152121150A071B0721D3683B
:10166000013BD3605DF8044B7047937A03F00303AA
:101670000029E6D043F00403E3E7D3685DF8044BA8
:10168000023BD3607047D3685DF8044B0233D360EC
:101690007047D3685DF8044B0133D360704700BFD7
:1016A0003013FF1F214B10B45A6F1368506819781C
:1016B0000478507A137A044201EA03011BD0937A2A
:1016C00003F0030309B143F0040343F00803991046
:1016D000013B91720D2B0BD8DFE803F021071B07AC
:1016E0000A152121150A071B0721D368013BD36086
:1016F0005DF8044B7047937A03F003030029E6D0AA
:1017000043F00403E3E7D3685DF8044B023BD36086
:101710007047D3685DF8044B0233D3607047D368D9
:101720005DF8044B0133D360704700BF3013FF1FD7
:10173000214B10B49A6F1368506819780478507A66
:10174000137A044201EA03011BD0937A03F00303E6
:1017500009B143F0040343F008039910013B91726F
:101760000D2B0BD8DFE803F021071B070A152121F9
:10177000150A071B0721D368013BD3605DF8044BB2
:101780007047937A03F003030029E6D043F0040383
:10179000E3E7D3685DF8044B023BD3607047D3683E
:1017A0005DF8044B0233D3607047D3685DF8044B97
:1017B0000133D360704700BF3013FF1F214B10B4BB
:1017C000DA6F1368506819780478507A137A0442F3
:1017D00001EA03011BD0937A03F0030309B143F03C
:1017E000040343F008039910013B91720D2B0BD8B1
:1017F000DFE803F021071B070A152121150A071B43
:101800000721D368013BD3605DF8044B7047937A9E
:1018100003F003030029E6D043F00403E3E7D368B1
:101820005DF8044B023BD3607047D3685DF8044B0E
:101830000233D3607047D3685DF8044B0133D36043
:10184000704700BF3013FF1F214B10B4D3F8802026
:101850001368506819780478507A137A044201EAC0
:1018600003011BD0937A03F0030309B143F004038F
:1018700043F008039910013B91720D2B0BD8DFE860
:1018800003F021071B070A152121150A071B072151
:10189000D368013BD3605DF8044B7047937A03F043
:1018A00003030029E6D043F00403E3E7D3685DF8BF
:1018B000044B023BD3607047D3685DF8044B02339E
:1018C000D3607047D3685DF8044B0133D360704731
:1018D0003013FF1F214B10B4D3F8842013685068D5
:1018E00019780478507A137A044201EA03011BD074
:1018F000937A03F0030309B143F0040343F00803B0
:101900009910013B91720D2B0BD8DFE803F02107F2
:101910001B070A152121150A071B0721D368013B64
:10192000D3605DF8044B7047937A03F003030029FA
:10193000E6D043F00403E3E7D3685DF8044B023BD1
:10194000D3607047D3685DF8044B0233D3607047AF
:10195000D3685DF8044B0133D36070473013FF1F29
:10196000214B10B4D3F88820136850681978047894
:10197000507A137A044201EA03011BD0937A03F0F0
:10198000030309B143F0040343F008039910013B3A
:1019900091720D2B0BD8DFE803F021071B070A1506
:1019A0002121150A071B0721D368013BD3605DF88D
:1019B000044B7047937A03F003030029E6D043F009
:1019C0000403E3E7D3685DF8044B023BD360704740
:1019D000D3685DF8044B0233D3607047D3685DF879
:1019E000044B0133D36070473013FF1F214B10B4F9
:1019F000D3F88C201368506819780478507A137AD9
:101A0000044201EA03011BD0937A03F0030309B1F6
:101A100043F0040343F008039910013B91720D2B2E
:101A20000BD8DFE803F021071B070A152121150A4F
:101A3000071B0721D368013BD3605DF8044B704757
:101A4000937A03F003030029E6D043F00403E3E7AD
:101A5000D3685DF8044B023BD3607047D3685DF8F0
:101A6000044B0233D3607047D3685DF8044B0133F5
:101A7000D36070473013FF1F214B10B4D3F8902070
:101A80001368506819780478507A137A044201EA8E
:101A900003011BD0937A03F0030309B143F004035D
:101AA00043F008039910013B91720D2B0BD8DFE82E
:101AB00003F021071B070A152121150A071B07211F
:101AC000D368013BD3605DF8044B7047937A03F011
:101AD00003030029E6D043F00403E3E7D3685DF88D
:101AE000044B023BD3607047D3685DF8044B02336C
:101AF000D3607047D3685DF8044B0133D3607047FF
:101B00003013FF1F214B10B4D3F894201368506892
:101B100019780478507A137A044201EA03011BD041
:101B2000937A03F0030309B143F0040343F008037D
:101B30009910013B91720D2B0BD8DFE803F02107C0
:101B40001B070A152121150A071B0721D368013B32
:101B5000D3605DF8044B7047937A03F003030029C8
:101B6000E6D043F00403E3E7D3685DF8044B023B9F
:101B7000D3607047D3685DF8044B0233D36070477D
:101B8000D3685DF8044B0133D36070473013FF1FF7
:101B9000214B10B4D3F89820136850681978047852
:101BA000507A137A044201EA03011BD0937A03F0BE
:101BB000030309B143F0040343F008039910013B08
:101BC00091720D2B0BD8DFE803F021071B070A15D4
:101BD0002121150A071B0721D368013BD3605DF85B
:101BE000044B7047937A03F003030029E6D043F0D7
:101BF0000403E3E7D3685DF8044B023BD36070470E
:101C0000D3685DF8044B0233D3607047D3685DF846
:101C1000044B0133D36070473013FF1F214B10B4C6
:101C2000D3F89C201368506819780478507A137A96
:101C3000044201EA03011BD0937A03F0030309B1C4
:101C400043F0040343F008039910013B91720D2BFC
:101C50000BD8DFE803F021071B070A152121150A1D
:101C6000071B0721D368013BD3605DF8044B704725
:101C7000937A03F003030029E6D043F00403E3E77B
:101C8000D3685DF8044B023BD3607047D3685DF8BE
:101C9000044B0233D3607047D3685DF8044B0133C3
:101CA000D36070473013FF1F214B10B4D3F8A0202E
:101CB0001368506819780478507A137A044201EA5C
:101CC00003011BD0937A03F0030309B143F004032B
:101CD00043F008039910013B91720D2B0BD8DFE8FC
:101CE00003F021071B070A152121150A071B0721ED
:101CF000D368013BD3605DF8044B7047937A03F0DF
:101D000003030029E6D043F00403E3E7D3685DF85A
:101D1000044B023BD3607047D3685DF8044B023339
:101D2000D3607047D3685DF8044B0133D3607047CC
:101D30003013FF1F214B10B4D3F8A4201368506850
:101D400019780478507A137A044201EA03011BD00F
:101D5000937A03F0030309B143F0040343F008034B
:101D60009910013B91720D2B0BD8DFE803F021078E
:101D70001B070A152121150A071B0721D368013B00
:101D8000D3605DF8044B7047937A03F00303002996
:101D9000E6D043F00403E3E7D3685DF8044B023B6D
:101DA000D3607047D3685DF8044B0233D36070474B
:101DB000D3685DF8044B0133D36070473013FF1FC5
:101DC000214B10B4D3F8A820136850681978047810
:101DD000507A137A044201EA03011BD0937A03F08C
:101DE000030309B143F0040343F008039910013BD6
:101DF00091720D2B0BD8DFE803F021071B070A15A2
:101E00002121150A071B0721D368013BD3605DF828
:101E1000044B7047937A03F003030029E6D043F0A4
:101E20000403E3E7D3685DF8044B023BD3607047DB
:101E3000D3685DF8044B0233D3607047D3685DF814
:101E4000044B0133D36070473013FF1F214B10B494
:101E5000D3F8AC201368506819780478507A137A54
:101E6000044201EA03011BD0937A03F0030309B192
:101E700043F0040343F008039910013B91720D2BCA
:101E80000BD8DFE803F021071B070A152121150AEB
:101E9000071B0721D368013BD3605DF8044B7047F3
:101EA000937A03F003030029E6D043F00403E3E749
:101EB000D3685DF8044B023BD3607047D3685DF88C
:101EC000044B0233D3607047D3685DF8044B013391
:101ED000D36070473013FF1F214B10B4D3F8B020EC
:101EE0001368506819780478507A137A044201EA2A
:101EF00003011BD0937A03F0030309B143F00403F9
:101F000043F008039910013B91720D2B0BD8DFE8C9
:101F100003F021071B070A152121150A071B0721BA
:101F2000D368013BD3605DF8044B7047937A03F0AC
:101F300003030029E6D043F00403E3E7D3685DF828
:101F4000044B023BD3607047D3685DF8044B023307
:101F5000D3607047D3685DF8044B0133D36070479A
:101F60003013FF1F214B10B4D3F8B420136850680E
:101F700019780478507A137A044201EA03011BD0DD
:101F8000937A03F0030309B143F0040343F0080319
:101F90009910013B91720D2B0BD8DFE803F021075C
:101FA0001B070A152121150A071B0721D368013BCE
:101FB000D3605DF8044B7047937A03F00303002964
:101FC000E6D043F00403E3E7D3685DF8044B023B3B
:101FD000D3607047D3685DF8044B0233D360704719
:101FE000D3685DF8044B0133D36070473013FF1F93
:101FF000214B10B4D3F8B8201368506819780478CE
:10200000507A137A044201EA03011BD0937A03F059
:10201000030309B143F0040343F008039910013BA3
:1020200091720D2B0BD8DFE803F021071B070A156F
:102030002121150A071B0721D368013BD3605DF8F6
:10204000044B7047937A03F003030029E6D043F072
:102050000403E3E7D3685DF8044B023BD3607047A9
:10206000D3685DF8044B0233D3607047D3685DF8E2
:10207000044B0133D36070473013FF1F214B10B462
:10208000D3F8BC201368506819780478507A137A12
:10209000044201EA03011BD0937A03F0030309B160
:1020A00043F0040343F008039910013B91720D2B98
:1020B0000BD8DFE803F021071B070A152121150AB9
:1020C000071B0721D368013BD3605DF8044B7047C1
:1020D000937A03F003030029E6D043F00403E3E717
:1020E000D3685DF8044B023BD3607047D3685DF85A
:1020F000044B0233D3607047D3685DF8044B01335F
:10210000D36070473013FF1F214B10B4D3F8C020A9
:102110001368506819780478507A137A044201EAF7
:1021200003011BD0937A03F0030309B143F00403C6
:1021300043F008039910013B91720D2B0BD8DFE897
:1021400003F021071B070A152121150A071B072188
:10215000D368013BD3605DF8044B7047937A03F07A
:1021600003030029E6D043F00403E3E7D3685DF8F6
:10217000044B023BD3607047D3685DF8044B0233D5
:10218000D3607047D3685DF8044B0133D360704768
:102190003013FF1F214B10B4D3F8C42013685068CC
:1021A00019780478507A137A044201EA03011BD0AB
:1021B000937A03F0030309B143F0040343F00803E7
:1021C0009910013B91720D2B0BD8DFE803F021072A
:1021D0001B070A152121150A071B0721D368013B9C
:1021E000D3605DF8044B7047937A03F00303002932
:1021F000E6D043F00403E3E7D3685DF8044B023B09
:10220000D3607047D3685DF8044B0233D3607047E6
:10221000D3685DF8044B0133D36070473013FF1F60
:10222000214B10B4D3F8C82013685068197804788B
:10223000507A137A044201EA03011BD0937A03F027
:10224000030309B143F0040343F008039910013B71
:1022500091720D2B0BD8DFE803F021071B070A153D
:102260002121150A071B0721D368013BD3605DF8C4
:10227000044B7047937A03F003030029E6D043F040
:102280000403E3E7D3685DF8044B023BD360704777
:10229000D3685DF8044B0233D3607047D3685DF8B0
:1022A000044B0133D36070473013FF1F214B10B430
:1022B000D3F8CC201368506819780478507A137AD0
:1022C000044201EA03011BD0937A03F0030309B12E
:1022D00043F0040343F008039910013B91720D2B66
:1022E0000BD8DFE803F021071B070A152121150A87
:1022F000071B0721D368013BD3605DF8044B70478F
:10230000937A03F003030029E6D043F00403E3E7E4
:10231000D3685DF8044B023BD3607047D3685DF827
:10232000044B0233D3607047D3685DF8044B01332C
:10233000D36070473013FF1F214B10B4D3F8D02067
:102340001368506819780478507A137A044201EAC5
:1023500003011BD0937A03F0030309B143F0040394
:1023600043F008039910013B91720D2B0BD8DFE865
:1023700003F021071B070A152121150A071B072156
:10238000D368013BD3605DF8044B7047937A03F048
:1023900003030029E6D043F00403E3E7D3685DF8C4
:1023A000044B023BD3607047D3685DF8044B0233A3
:1023B000D3607047D3685DF8044B0133D360704736
:1023C0003013FF1F214B10B4D3F8D420136850688A
:1023D00019780478507A137A044201EA03011BD079
:1023E000937A03F0030309B143F0040343F00803B5
:1023F0009910013B91720D2B0BD8DFE803F02107F8
:102400001B070A152121150A071B0721D368013B69
:10241000D3605DF8044B7047937A03F003030029FF
:10242000E6D043F00403E3E7D3685DF8044B023BD6
:10243000D3607047D3685DF8044B0233D3607047B4
:10244000D3685DF8044B0133D36070473013FF1F2E
:10245000214B10B4D3F8D820136850681978047849
:10246000507A137A044201EA03011BD0937A03F0F5
:10247000030309B143F0040343F008039910013B3F
:1024800091720D2B0BD8DFE803F021071B070A150B
:102490002121150A071B0721D368013BD3605DF892
:1024A000044B7047937A03F003030029E6D043F00E
:1024B0000403E3E7D3685DF8044B023BD360704745
:1024C000D3685DF8044B0233D3607047D3685DF87E
:1024D000044B0133D36070473013FF1F214B10B4FE
:1024E000D3F8DC201368506819780478507A137A8E
:1024F000044201EA03011BD0937A03F0030309B1FC
:1025000043F0040343F008039910013B91720D2B33
:102510000BD8DFE803F021071B070A152121150A54
:10252000071B0721D368013BD3605DF8044B70475C
:10253000937A03F003030029E6D043F00403E3E7B2
:10254000D3685DF8044B023BD3607047D3685DF8F5
:10255000044B0233D3607047D3685DF8044B0133FA
:10256000D36070473013FF1FF8B5044615460E467A
:102570000846022101F0A0FB2846022101F09CFB45
:10258000984A994B52F83610012001F500772760E0
:10259000207252F83520607202F5007700206760E3
:1025A000E060013BFDD191F8003292F8002203F087
:1025B0000103D20744BF43F00203DBB2A3723B2EF8
:1025C00000F20386DFE816F0F405EA05E005D6051B
:1025D000CC05C205B805AE05A4059A05900586058B
:1025E0007C05720568055E0554054A0540053605FB
:1025F0002C05220518050E050405FA04F004E6046E
:10260000DC04D204C804BE04B304A8049D049204EC
:1026100087047C0428041E0414040A040004F6033E
:10262000EC03E203D803CE03C403BA03B003A6034A
:102630009C03920388037E0374036A0360033C00D7
:102640006A4B6B49C3F8EC4004223B2001F000F9CF
:10265000012323743B2D00F2B585DFE815F00B0351
:102660000103F702ED02E302D902CF02C502BB0269
:10267000B102A7029D02930289027F023102270262
:102680001D0213020902FF01F501EB01E101D7016F
:10269000CD01C301B901AF01A5019B0191018601E3
:1026A0007B01700165015A014F01440139012E017E
:1026B000230118010D010201F700EC00E100B80050
:1026C000AD00A20097008C00810076006B006000D6
:1026D00055004A003C00454B4549C3F8EC400422F4
:1026E0003B2001F0B5F8237C0122134423742046DB
:1026F000F8BD3E4B3F49C3F8E84004223A2001F0C0
:10270000A7F8237C0122F0E7384B3B49C3F8E440AB
:102710000422392001F09CF8237C0122E5E7334BA9
:102720003649C3F8E0400422382001F091F8237CB8
:102730000122DAE72D4B3249C3F8DC40042237206E
:1027400001F086F8237C0122CFE7284B2D49C3F8FE
:10275000D8400422362001F07BF8237C0122C4E714
:10276000224B2949C3F8D4400422352001F070F8E7
:10277000237C0122B9E71D4B2449C3F8D040042231
:10278000342001F065F8237C0122AEE7174B204985
:10279000C3F8CC400422332001F05AF8237C0122F4
:1027A000A3E7124B1B49C3F8C8400422322001F0B2
:1027B0004FF8237C012298E70C4B1749C3F8C4401B
:1027C0000422312001F044F8237C01228DE7074BDD
:1027D0001249C3F8C0400422302001F039F8237CAC
:1027E000012282E760680000C0D401003013FF1F9F
:1027F0003D060000B1050000250500009904000019
:10280000DD24000051240000C5230000392300000E
:10281000AD220000212200009521000009210000C6
:10282000AC4BAD49C3F8BC4004222F2001F010F896
:10283000237C012259E7A74BA849C3F8B8400422DA
:102840002E2001F005F8237C01224EE7A14BA4497C
:10285000C3F8B44004222D2000F0FAFF237C0122AB
:1028600043E79C4B9F49C3F8B04004222C2000F062
:10287000EFFF237C012238E7964B9B49C3F8AC401D
:1028800004222B2000F0E4FF237C01222DE7914B52
:102890009649C3F8A84004222A2000F0D9FF237CDF
:1028A000012222E78B4B9249C3F8A440042229203D
:1028B00000F0CEFF237C012217E7864B8D49C3F839
:1028C000A0400422282000F0C3FF237C01220CE753
:1028D000804B8949C3F89C400422272000F0B8FFB0
:1028E000237C012201E77B4B8449C3F898400422F2
:1028F000262000F0ADFF237C0122F6E6754B8049CF
:10290000C3F894400422252000F0A2FF237C01227A
:10291000EBE6704B7B49C3F890400422242000F082
:1029200097FF237C0122E0E66A4B7749C3F88C408D
:102930000422232000F08CFF237C0122D5E6654B86
:102940007249C3F888400422222000F081FF237CD2
:102950000122CAE65F4B6E49C3F88440042221205D
:1029600000F076FF237C0122BFE65A4B6949C3F889
:1029700080400422202000F06BFF237C0122B4E67B
:10298000544B6549DC6704221F2000F061FF237C63
:102990000122AAE64F4B61499C6704221E2000F0E9
:1029A00057FF237C0122A0E64A4B5D495C67042265
:1029B0001D2000F04DFF237C012296E6454B59492E
:1029C0001C6704221C2000F043FF237C01228CE6BC
:1029D000404B5549DC6604221B2000F039FF237C64
:1029E000012282E63B4B51499C6604221A2000F0EA
:1029F0002FFF237C012278E6364B4D495C6604228A
:102A0000192000F025FF237C01226EE6314B494955
:102A10001C660422182000F01BFF237C012264E6C0
:102A20002C4B4549DC650422172000F011FF237C64
:102A300001225AE6274B41499C650422162000F0EA
:102A400007FF237C012250E6224B3D495C650422AE
:102A5000152000F0FDFE237C012246E61D4B39497E
:102A60001C650422142000F0F3FE237C01223CE6C6
:102A7000184B3549DC640422132000F0E9FE237C66
:102A8000012232E6134B31499C640422122000F0EB
:102A9000DFFE237C012228E60E4B2D495C640422D4
:102AA000112000F0D5FE237C01221EE6094B2949A6
:102AB0001C640422102000F0CBFE237C012214E6CB
:102AC000044B2549DC6304220F2000F0C1FE237C67
:102AD00001220AE63013FF1F7D200000F11F0000D5
:102AE000651F0000D91E00004D1E0000C11D000022
:102AF000351D0000A91C00001D1C0000911B0000DA
:102B0000051B0000791A0000ED1900006119000092
:102B1000D518000049180000BD170000311700004B
:102B2000A5160000191600008D1500000115000003
:102B300075140000E91300005D130000D1120000BD
:102B400045120000B91100002D110000A110000075
:102B500015100000890F0000FD0E0000B34BB449B2
:102B60009C6304220E2000F073FE237C0122BCE54E
:102B7000AE4BB0495C6304220D2000F069FE237C5B
:102B80000122B2E5A94BAC491C6304220C2000F0E1
:102B90005FFE237C0122A8E5A44BA849DC62042245
:102BA0000B2000F055FE237C01229EE59F4BA4499B
:102BB0009C6204220A2000F04BFE237C012294E553
:102BC0009A4BA0495C620422092000F041FE237C5C
:102BD00001228AE5954B9C491C620422082000F0E2
:102BE00037FE237C012280E5904B9849DC6104226A
:102BF000072000F02DFE237C012276E58B4B9449C3
:102C00009C610422062000F023FE237C01226CE557
:102C1000864B90495C610422052000F019FE237C5C
:102C2000012262E5814B8C491C610422104600F0B0
:102C30000FFE237C012258E57C4B8849DC6004228E
:102C4000032000F005FE237C01224EE5774B8449EA
:102C50009C600422022000F0FBFD237C012244E55D
:102C6000724B80495C600422012000F0F1FD237C5E
:102C700001223AE56D4B7C491C600422002000F0E3
:102C8000E7FD237C012230E5684B7849C3F8E84032
:102C900004223A2000F0DCFD0123DAE4634B74499E
:102CA000C3F8E4400422392000F0D2FD0123D0E42F
:102CB0005E4B7049C3F8E0400422382000F0C8FDA4
:102CC0000123C6E4594B6C49C3F8DC400422372089
:102CD00000F0BEFD0123BCE4544B6849C3F8D84062
:102CE0000422362000F0B4FD0123B2E44F4B6449C6
:102CF000C3F8D4400422352000F0AAFD0123A8E443
:102D00004A4B6049C3F8D0400422342000F0A0FDB3
:102D100001239EE4454B5C49C3F8CC400422332098
:102D200000F096FD012394E4404B5849C3F8C84095
:102D30000422322000F08CFD01238AE43B4B5449ED
:102D4000C3F8C4400422312000F082FD012380E456
:102D5000364B5049C3F8C0400422302000F078FDC3
:102D6000012376E4314B4C49C3F8BC4004222F20A8
:102D700000F06EFD01236CE42C4B4849C3F8B840C9
:102D800004222E2000F064FD012362E4274B444915
:102D9000C3F8B44004222D2000F05AFD012358E46A
:102DA000224B4049C3F8B04004222C2000F050FDD3
:102DB00001234EE41D4B3C49C3F8AC4004222B20B8
:102DC00000F046FD012344E4184B3849C3F8A840FD
:102DD00004222A2000F03CFD01233AE4134B34493D
:102DE000C3F8A4400422292000F032FD012330E47E
:102DF0000E4B3049C3F8A0400422282000F028FDE3
:102E0000012326E4094B2C49C3F89C4004222720C7
:102E100000F01EFD01231CE4044B2849C3F8984030
:102E20000422262000F014FD012312E43013FF1FBA
:102E3000710E0000E50D0000590D0000CD0C0000E2
:102E4000410C0000B50B0000290B00009D0A00009A
:102E5000110A000085090000F90800006D08000053
:102E6000E107000055070000C9060000B105000099
:102E70002505000099040000DD2400005124000015
:102E8000C523000039230000AD22000021220000EC
:102E900095210000092100007D200000F11F0000A5
:102EA000651F0000D91E00004D1E0000C11D00005E
:102EB000351D0000A91C00001D1C0000911B000016
:102EC000C34BC449C3F894400422252000F0C0FC41
:102ED0000123FFF7BEBBBE4BBF49C3F8904004229D
:102EE000242000F0B5FC0123FFF7B3BBB84BBB496E
:102EF000C3F88C400422232000F0AAFC0123FFF732
:102F0000A8BBB34BB649C3F888400422222000F086
:102F10009FFC0123FFF79DBBAD4BB249C3F8844032
:102F20000422212000F094FC0123FFF792BBA84B60
:102F3000AD49C3F880400422202000F089FC012321
:102F4000FFF787BBA24BA949DC6704221F2000F0D2
:102F50007FFC0123FFF77DBB9D4BA5499C670422A5
:102F60001E2000F075FC0123FFF773BB984BA149AD
:102F70005C6704221D2000F06BFC0123FFF769BB96
:102F8000934B9D491C6704221C2000F061FC012327
:102F9000FFF75FBB8E4B9949DC6604221B2000F0D3
:102FA00057FC0123FFF755BB894B95499C660422CA
:102FB0001A2000F04DFC0123FFF74BBB844B9149D5
:102FC0005C660422192000F043FC0123FFF741BB9B
:102FD0007F4B8D491C660422182000F039FC012328
:102FE000FFF737BB7A4B8949DC650422172000F0D4
:102FF0002FFC0123FFF72DBB754B85499C650422EF
:10300000162000F025FC0123FFF723BB704B8149FC
:103010005C650422152000F01BFC0123FFF719BB9F
:103020006B4B7D491C650422142000F011FC012328
:10303000FFF70FBB664B7949DC640422132000F0D4
:1030400007FC0123FFF705BB614B75499C64042213
:10305000122000F0FDFB0123FFF7FBBA5C4B714926
:103060005C640422112000F0F3FB0123FFF7F1BAA6
:10307000574B6D491C640422102000F0E9FB01232A
:10308000FFF7E7BA524B6949DC6304220F2000F0D6
:10309000DFFB0123FFF7DDBA4D4B65499C6304223A
:1030A0000E2000F0D5FB0123FFF7D3BA484B61494E
:1030B0005C6304220D2000F0CBFB0123FFF7C9BAAB
:1030C000434B5D491C6304220C2000F0C1FB01232B
:1030D000FFF7BFBA3E4B5949DC6204220B2000F0D7
:1030E000B7FB0123FFF7B5BA394B55499C6204225F
:1030F0000A2000F0ADFB0123FFF7ABBA344B514976
:103100005C620422092000F0A3FB0123FFF7A1BAAF
:103110002F4B4D491C620422082000F099FB01232B
:10312000FFF797BA2A4B4949DC610422072000F0D7
:103130008FFB0123FFF78DBA254B45499C61042283
:10314000062000F085FB0123FFF783BA204B41499D
:103150005C610422052000F07BFB0123FFF779BAB4
:103160001B4B3D491C610422104600F071FB0123FA
:10317000FFF76FBA164B3949DC600422032000F0D8
:1031800067FB0123FFF765BA114B35499C600422A8
:10319000022000F05DFB0123FFF75BBA0C4B3149C5
:1031A0005C600422012000F053FB0123FFF751BAB9
:1031B000074B2D491C600422002000F049FB01232D
:1031C000FFF747BA0022FFF790BA0023FFF741BA92
:1031D0003013FF1F051B0000791A0000ED190000D5
:1031E00061190000D518000049180000BD17000043
:1031F00031170000A5160000191600008D150000FB
:103200000115000075140000E91300005D130000B3
:10321000D112000045120000B91100002D1100006C
:10322000A110000015100000890F0000FD0E000025
:10323000710E0000E50D0000590D0000CD0C0000DE
:10324000410C0000B50B0000290B00009D0A000096
:10325000110A000085090000F90800006D0800004F
:10326000E107000055070000C906000038B50E4B05
:1032700000290C460546C8BF0021185CD8BF0121B3
:1032800000F014FD84EAE471A1EBE471B1EB0121DB
:10329000064B48BFFF310912585D01F58071BDE84A
:1032A000384000F063BB00BF5C6800005868000055
:1032B000F8B50C4F0C4E042505200024012100F028
:1032C000FBFC2846012100F0F7FCE0B200210134AC
:1032D000FFF7CCFF042C04D017F8010F16F8015F9C
:1032E000ECE7F8BD586800005C68000070B52B2161
:1032F0000446984801F05CFD974801F065FE651EA4
:103300001421964801F054FDEDB2934801F05CFEA3
:10331000012D40F2EF80002C00F09180032C00F092
:103320008E80C82000F0CEFC032C00F2D380DFE8B2
:1033300004F071591D028A4B1A7C012A56D972B6C3
:10334000D96862B6844801F08FFE834801F03CFEE4
:10335000012D40F2C980032C6CD0C82000F0B2FCD3
:10336000032C7FD8DFE804F0B19984717D4B1A7C7F
:10337000012AE4D872B61A68586811780678587A23
:103380001A7A064201EA020100F074819A7A02F088
:10339000030200293BD142F008029110013A9972D0
:1033A0000D2ACDD801A151F822F000BF1B36000034
:1033B000133600002B3600001336000041330000A6
:1033C000233600001B3600001B36000023360000A9
:1033D00041330000133600002B3600001336000086
:1033E0001B360000604B1A7C012AA8D872B61A68F6
:1033F000586811780678587A1A7A064201EA02016A
:1034000000F0EE809A7A02F003020029C3D042F065
:103410000402C0E7554B1A7C012A40F2A98072B61B
:10342000D96862B64C4801F01FFE4B4801F0CCFD54
:10343000012D59D950212046FFF718FF8DE76FF075
:103440004F012046FFF712FF6BE7454B1A7C012A1C
:1034500027D972B6D96862B63F4801F005FE3E48EA
:1034600001F0B2FD20460021BDE87040FFF7FEBE2E
:103470003C4B1A7C012AECD872B61A68586811784D
:103480000578587A1A7A054201EA020100F0E980CB
:103490009A7A02F00302A9B112E0334B1A7C012A96
:1034A000D7D872B61A68586811780578587A1A7A97
:1034B000054201EA020122D09A7A02F0030209B120
:1034C00042F0040242F008021FE0284B1A7C012A55
:1034D000BFD8E6E7012D07D9002C7FF43CAF50217F
:1034E0002046FFF7C3FE38E76FF04F012046FFF795
:1034F000BDFE30E750212046FFF7B8FE11E79A7A6B
:1035000002F00302002940F0B2809110013A997252
:103510000D2A9FD801A151F822F000BF0B36000000
:1035200003360000FB350000033600005534000070
:10353000F33500000B3600000B360000F3350000B9
:103540005534000003360000FB3500000336000050
:103550000B36000090670000C809FF1FBC67000021
:103560001C13FF1F0813FF1FF412FF1FE012FF1FA1
:1035700072B61A68586811780678587A1A7A06422C
:1035800001EA020165D09A7A02F0030209B142F021
:10359000040242F008029110013A99720D2A3FF696
:1035A0003FAF01A151F822F04B3600004336000036
:1035B0003B36000043360000213400003336000063
:1035C0004B3600004B36000033360000213400003B
:1035D000433600003B360000433600004B36000007
:1035E0009A7A02F0030200293FF4D7AE42F00402B7
:1035F000D3E6D9680239D9602DE7D9680231D9609C
:1036000029E7D9680139D96025E7D9680131D9603E
:1036100021E7D9680139D96093E6D9680131D960C9
:103620008FE6D9680239D9608BE6D9680231D96052
:1036300087E6D9680239D960F3E6D9680231D960E2
:10364000EFE6D9680139D960EBE6D9680131D96074
:10365000E7E69A7A02F0030200299CD042F00402C5
:1036600099E79A7A02F0030200293FF44EAF42F044
:1036700004024AE79A7A02F003020029B6D18CE6E6
:1036800010B5FFF715FE0321212000F015FB0322E2
:103690001349212000F0DCF872B6124B0024DC60E4
:1036A00062B672B6104BDC6062B672B60F4BDC606D
:1036B00062B672B60E4BDC6062B64FF47A7000F000
:1036C00001FB2046FFF712FE0120FFF70FFE02204C
:1036D000FFF70CFE0320BDE81040FFF707BE00BF58
:1036E0006D040000E012FF1FF412FF1F0813FF1FFC
:1036F0001C13FF1F08B501F031FB00B908BD0E48CF
:1037000001F01CFD6330F9D10B210C4801F050FB96
:10371000094801F059FC4FF47A7000F0D3FA052102
:10372000074801F045FB044801F04EFC72B6054B1A
:10373000054A1A60E2E700BFC809FF1FD46700000E
:10374000006700000CED00E00400FA0508B50C224B
:1037500018210948FEF708FF0A220B210748FEF747
:1037600003FF20221F210648FEF7FEFE1E221D2118
:103770000448FEF7F9FE08BDE012FF1FF412FF1F18
:103780000813FF1F1C13FF1F704700BF10B4114B1D
:1037900053F8302092F8804234B1012379B182F895
:1037A00080305DF8044B704703EBC0035B681A6818
:1037B00051B922F002021A605DF8044B704782F89A
:1037C00000315DF8044B704742F003021A605DF867
:1037D000044B7047606800001C4A02EBC0030129DB
:1037E0005B6811D004291BD052F83000002280F809
:1037F000802229B1022920D0032922D01A607047E3
:103800004FF480721A60704752F830004FF4A27281
:1038100080F880121A601A6822F020021A6070473D
:1038200052F830104FF4A272012081F880021A6021
:103830001A6842F020021A60704740F203121A60C0
:1038400070474FF481721A60704700BF60680000D3
:103850003F2848D8F8B5042A44D8DFE802F0484B9E
:103860004E0345004FF410262B4B03EBC0030D46CF
:103870005C68216811F4E06148D0284B284A294946
:10388000C3F82C2104F140422748C3F83411A2F5B3
:103890009221264FC3F830017C292548C3F838719E
:1038A000C3F83C012CD9A2F594237C2B2AD9A2F58C
:1038B00096237C2B28D9A2F598237C2B29D9A2F515
:1038C0009A227C2A27D81B4872B6236823F47023D7
:1038D00043F08072C4F384011643236040F8215002
:1038E000266062B6F8BD70474FF43026BCE74FF44F
:1038F0000026B9E74FF44026B6E74FF42026B3E799
:103900000D48E1E70D48DFE70D48DDE7FFF764FF0D
:10391000B3E70C48D8E7F8BD606800000002FF1F5D
:10392000E107FF1F8907FF1FB507FF1F5D07FF1F87
:103930003107FF1F5409FF1F0C08FF1F8408FF1FDA
:10394000E408FF1F1409FF1F30B4054B054D064C5A
:10395000002210211A602A602060196030BC704774
:1039600014D0034004D0034000D0034038B5A0F188
:103970004203012B044624D900297ADD994B1B7898
:10398000012505FA03F28A4202D83F282CD938BD16
:10399000C21E012A30D9A0F11D02012A78D90E28B1
:1039A0005BD9A4F12302032A5CD9A4F11002012AF5
:1039B00094BF8D4A8D4A126802FB011222FA03F36A
:1039C00020E0884B1B780B2B0AD90C2B1CBF0C3B1F
:1039D0001941422C084657D0BDE8384001F0B8BC28
:1039E000C3F10C039940F4E72946FFF7CFFE2946BF
:1039F000BDE83840FFF7F0BE7D4A126802FB0112B5
:103A000022FA03F3A21E242A00F2E380DFE812F078
:103A1000DA00D300CC00C500BE00B700B000A9009A
:103A2000A200E100E100E1009B00E10094008D00B4
:103A3000E100E10086007F0078007100E100E10014
:103A4000E100E100E1006A006300E100E100E10063
:103A5000E1005C0055004E00470044F28412C24071
:103A6000D2079ED5634A126802FB011222FA03F3C1
:103A7000C8E73F288BD80021FFF788FE20460121A8
:103A8000BDE83840FFF7A8BEBDE8384001F042BCB1
:103A9000594A126802FB011222FA03F3B2E75749AE
:103AA000574A0B604FF45173136038BD5549564A5D
:103AB0000B604FF45173136038BD5449544A0B6086
:103AC0004FF45173136038BD5249534A0B604FF4A1
:103AD0005173136038BD5149514A0B604FF4517313
:103AE000136038BD4F49504A0B604FF45173136057
:103AF00038BD4E494E4A0B6040F24443136038BD16
:103B00004C494D4A0B6040F24443136038BD4B4969
:103B10004B4A0B6040F24443136038BD49494A4A5E
:103B20000B6040F24443136038BD4849484A0B607B
:103B300040F24463136038BD4649474A0B6040F287
:103B40004463136038BD4549454A0B6040F2444325
:103B5000136038BD4349444A0B6040F2444313604C
:103B600038BD4249424A0B6040F24443136038BDBD
:103B70004049414A0B6040F24443136038BD3F491D
:103B80003F4A0B6040F24443136038BD3D493E4A12
:103B90000B6040F24443136038BD3C493C4A0B6023
:103BA00040F24443136038BD3A493B4A0B604FF43E
:103BB0005173136038BD3949394A0B604FF4517362
:103BC000136038BD3749384A0B6040F244431360F4
:103BD00038BD3F2C3FF6DBAE7F29D4BF0021012149
:103BE000204649E7C009FF1F08900C4008800340A9
:103BF0000890034008900B4008800B4048900B4011
:103C00002CB0044040900B4028B0044038900B404A
:103C100024B0044030900B4020B0044018800B408A
:103C20004CA0044010800B4048A004401880034082
:103C300008B004401080034004B0044040800340BA
:103C400018C004403880034014C0044018900C4051
:103C500004A0044010900C4000A0044018900B40B9
:103C600004C004402880034010B00440208003407A
:103C70000CB0044028900B400CC0044020900B4036
:103C800008C004403080034010C004404880034016
:103C90001CC004401890034034900440109003402E
:103CA0003090044010900B4000C004403F2801D8E1
:103CB000FFF76CBD704700BF3F2801D8FFF78CBDF0
:103CC000704700BF2DE9F843054672B6224F234BDB
:103CD000234A1B683C68126862B6520102D5322B37
:103CE00088BF0134B5B3C3F52F3303F21F331D4E24
:103CF000DFF86890DFF868809B084FF47A72A6FBC3
:103D0000031302FB04F404EB930472B6D9F8001019
:103D10003A68D8F800E062B6C1F52F3303F21F33DA
:103D20009B08A6FB03031EF0806FC4EB93034FF4C4
:103D30007A7002D0322988BF013200FB0233B3F51A
:103D40007A7F04D3013D05D004F57A74DDE701F0F4
:103D50000FFADAE7BDE8F8833014FF1F18E000E03F
:103D600004ED00E0176CC116F8B54E4B4E48DFF875
:103D70005CC14E4C4E49DFF858E14E4E4E4D4F4F10
:103D80004FF000621A604FF080521A604FF00052FC
:103D90001A604FF080421A604FF000421A60002211
:103DA000026028234EF6FF70CCF80000CEF80030F9
:103DB00023600EF5012E0B6033602B6006F50026A4
:103DC0003B6005F50025A36207F500278B6204F52B
:103DD000012401F5012106F6E87605F6E87507F5F8
:103DE0007F6710310EF1100E203433602B60CEF857
:103DF00000303B600B602360314CBB618B6109215B
:103E00002160A7F5002704F58054203F08343A606C
:103E10002060BB60E36047F8041C04F5FD2407F54F
:103E2000FE27043704F2FC7422603860A360FB6054
:103E300044F8041C083404F6FC74C7F8FC2F206016
:103E4000A4F5E124A4F2DC7433602B60C7F8F81FFA
:103E500021681C4841F40071216001681A4C0EF57C
:103E60007F4E0EF1E80E07F5883706F5803605F52A
:103E7000803541F000710160CEF8002047F6FF71F7
:103E80000822396033602B60226001F0D3F91920D9
:103E9000FFF718FF00F060FE40F21310BDE8F84095
:103EA000FFF710BF04E100E00480034014800340EA
:103EB0001C800340248003402C8003403480034056
:103EC000008003400480044000900C4008800340C0
:103ED0000C800340431E032B14D872B60A4951F8D4
:103EE000230068B170B4094C058834F81320466883
:103EF00041F82360521B24F8132062B670BC70474F
:103F000062B67047002070478C14FF1F8018FF1F97
:103F1000013803280BD872B6074B53F8203043B151
:103F200000205B680130002BFBD162B67047002097
:103F300070471846F9E700BFE014FF1F30B472B6AF
:103F40002B4A13781D0706D52A4B196A002936D04B
:103F5000996A002941D053781C0706D5254B196C66
:103F600000293ED0996C002939D09378190705D5DE
:103F7000204B196E002936D0996E89B1D3781B0772
:103F800007D51C4BD3F880207AB3D3F888201121B1
:103F90003AB162B6184B00221A7030BC00F07CBEF9
:103FA0000D21154C154D227843F8315003EBC10318
:103FB0000830013A5860227062B630BC7047042263
:103FC0000D4C0F4D217843F8325003EBC2030830FB
:103FD0004A1E5860227062B6EFE70521E1E7092129
:103FE000DFE70822ECE70C22EAE71022E8E700BF4F
:103FF0008C6A00000000FF1F0915FF1FC800400069
:1040000088004000431E032B1DD81B4A400140F08E
:10401000100030B4104472B6184CE25C032A1BD86E
:10402000DFE802F00212151703220D88E25410F0A7
:10403000080F14BFC823882343EA054308310360EF
:10404000416062B630BC704708300222EDE70522BD
:10405000EBE708300422E8E7094A52F8230038B1B8
:10406000084A52F82300416042F8231062B6E9E79B
:1040700042F82310034AF7E70000FF1F1815FF1F3F
:10408000E014FF1FF014FF1F2DE9F04FDFF80CB311
:10409000DFF80CA387B044E0AB4F4FEA930807EB7F
:1040A000C809013ED9F8042003F00803F6B2A2F1D2
:1040B000080003F0FF04002B40F0028157F838306D
:1040C0001B0C99B222F8081C002B00F0F0809F4BCB
:1040D00022F8064C42F8044C53F82620002A00F03F
:1040E000C5829B4D55F8263058609A4C45F82600FD
:1040F00034F81630194424F8161000F0ADFD0028ED
:1041000000F0AD82944A954B19F0080F00F10800B9
:1041100018BF1346C9F8040047F8383008238BF855
:1041200000309BF80040E4B261071AD58C4B1B7835
:10413000A3B18C490A7802F0FF0322B1013BDBB244
:104140000B7003B900BE88490A7802F0FF032AB158
:10415000013BDBB20B70002B00F0578204238BF87D
:10416000003004F0080303F0FF02002B00F0CC80C5
:104170009AF80030DBB21E098ED19C08DFF8C89196
:1041800059F8342009EBC401C2F38302013A4968AB
:104190000C2A00F28880DFE802F07C7C8686868626
:1041A00086864786868607000868704D4A68704F85
:1041B000704E286081B240F28160674B6A604FF0B8
:1041C000010E0022814249F834303A60C9F81020CB
:1041D000C9F8182086F800E05B4C00F2E380B1F5E6
:1041E000D06F80F04683B1F5817F00F0FC8200F251
:1041F0008D82802900F07783822940F0FA82A98895
:1042000001F07F01042900F2F4825B485B4C8900D5
:104210000844227062700278930740F1588484F851
:1042200000E04FF0020E42E3514F3A6832B3544B74
:10423000504E5449188834780D784028864645F009
:10424000020828BF4FF0400E002C84F001043470A7
:10425000CEEB00000CBF8824C82409EBC80680B24E
:1042600085F0010544EA0E447260188049F8384030
:1042700072440D70002800F045813A603B4B1A886B
:10428000B2F5A06F0FD100219A7859703E4B1A7089
:1042900009E0364A108842F22102904200F037814C
:1042A0002D4A49F83420394A0123137036E72A4A47
:1042B0002A4B19F0080F18BF134647F838302DE77E
:1042C00000F0EAFC324A334952F82630002B00F065
:1042D000D18158688C5D42F8260003F10802C9F8C4
:1042E0000420032C05D8DFE804F02C022926022242
:1042F0008A551A8819F0080F0CBF8823C82343EA8F
:10430000024347F8383009E7E00700F181812106D0
:1043100000F1F281A20706D51F4A20491378022036
:10432000DBB213700870E30602D51C4B10221A7022
:1043300007B0BDE8F08F04228A55DAE705228A55D6
:10434000D7E703228A55D4E70000FF1F8C14FF1F14
:104350003814FF1F8018FF1FC8004000880040006D
:104360001415FF1F9D14FF1F1C15FF1F0015FF1FB5
:104370003414FF1F9C14FF1FC02007400C15FF1FA3
:104380004814FF1F0815FF1F98200740942007407E
:10439000E014FF1F1815FF1F8820074080200740EA
:1043A0009020074042F22100814200F02A8100F271
:1043B000D880B1F5086F00F07682B1F5106F40F04B
:1043C0001882226AB349A8780870120600F13A836D
:1043D000D9F82820B049130600F10C83D9F8302011
:1043E000AD49150600F10183D9F83820AA49140611
:1043F00000F1F682D9F84020A749100600F14A835F
:10440000D9F84820A449120600F13F83D9F850207A
:10441000A149130600F13483D9F858209E491506A6
:1044200000F12983D9F860209B49140600F11E830E
:10443000D9F868209849100600F11383D9F8702044
:104440009549120600F10883D9F87820924913069D
:1044500000F1FD82D9F880208F49150600F13183E3
:10446000D9F888208C49140600F12583D9F89020CA
:104470008949100600F11983D9F898208649120657
:1044800000F10D838548864A864901908648874D0C
:10449000874C049700230596029580460F461646E2
:1044A0001D460394306828B1446800F0F5FB2046AF
:1044B000002CF9D100233360029B38681A46002390
:1044C00042F8253028B1446800F0E6FB2046002C75
:1044D000F9D100223A60019A98F800301146002282
:1044E00041F8042B039A0191023B4FF0000122F89E
:1044F0001510032B00F22B81DFE813F0700125016A
:1045000070012501BEF1400F18BF0022B5E6694ACF
:104510000D784878157050708D78C8789570D07087
:1045200010680D79157186284D79897955719171C9
:1045300000F09B816049614E0A78307882F0010575
:10454000002842F002020D700CBF8821C82149F8F2
:10455000321009EBC20280F001000021307051607E
:104560009EE642F22120814240F0CB81544B554CD3
:104570005549A8781D682560CDF804E00870002032
:1045800002908046844604464B490D7845F0020E61
:1045900009EBCE030393019B002B039B5C600CBFD4
:1045A0008824C82444EA080385F0010449F83E3011
:1045B00032700C70DFF8E0E0404BDFF8FC80002840
:1045C00040F01E81BCF1400F1BD144F0020C09EBFE
:1045D000CC03029CDFF8C0E05C60002A40F026813A
:1045E000020442F088029DF804304EF83C20044456
:1045F00033700D702346402803D10020334A3B60BE
:104600001080334A012313704DE600F0B1FCA5E59C
:10461000214B2F4828491A614FF0020E80F800E024
:104620002C4F0A702C49196099602C4E2C4D2D4C42
:104630009A610D213970FF213170DFF8B8E02970DF
:104640002270294D294A8EF800109F27012406F870
:10465000047C5D600470DA6007B0BDE8F08F244A26
:1046600047F8380013780133137057E543F82600F4
:104670000E4D3AE58B5D032B00F2F08001A252F85B
:1046800023F000BF1D4100001D4100004147000014
:104690003B4700001415FF1F0000FF1FF014FF1F11
:1046A0008C14FF1FE014FF1F1815FF1F3814FF1F85
:1046B0008018FF1F8818FF1F0815FF1F9C14FF1F7D
:1046C0003014FF1F9018FF1F2C15FF1F4814FF1FE9
:1046D00094200740C0200740880040008820074001
:1046E00080200740982007404C14FF1FA014FF1F94
:1046F0000915FF1F8C200740C149C24B80220D20A5
:1047000008701A70A2077FF50EAE05E640F202327D
:10471000914240F0EE80A98801F07F01042968D819
:104720006A88002A65D1B648CDF804E089000844BB
:10473000017841F00201017021E701238B55EDE47E
:1047400000238B55EAE44FF0010388F8003001356F
:10475000042D06F1040607F1040708F101087FF4AF
:10476000A1AEA94CA94B2278A94D049F059E00211A
:1047700029701A70130700F105816278A549DFF8E6
:10478000A0820A7010074FF00001C9F83010C9F874
:10479000381000F1E080A049A2780A700021C9F821
:1047A0005010C9F858101107DFF8748200F1018128
:1047B000E2789A499A4C0A7000211207C9F87010E1
:1047C000C9F8781000F1B08033780193002183F0AC
:1047D0000102C9F89010C9F89810D0E64FF0000314
:1047E00088F80030B3E7A98801F07F01042940F27E
:1047F0008D80834A0F2313708A4A0123137052E578
:1048000040287FF6E2AE44F002040EEBC401029EA3
:104810004E60BAB19DF80410834A1970334640388F
:1048200088F8005040334EF83420E7E69DF8043015
:1048300033700204029B0D7042F0C80203444EF82C
:104840003C20D8E69DF804101970029B774A88F83E
:104850000050403840334EF83420CFE619F0080FAE
:104860000CBF022303238B5558E4714A0F211170AA
:1048700060E6704A5468002CBBD06888B5F804E044
:1048800003E00C325468002CB3D013888342F8D173
:1048900053887345F5D1000A03280CBF94F800E053
:1048A000B2F808E003E0644A644C12782270E888A9
:1048B000704580F03F8162490D784028844645F07C
:1048C000020E28BF4FF0400C04EB0C0309EBCE02A4
:1048D000029301235460CCEB00004FEA0C48002205
:1048E0000193C8245EE6554C4FF0020E22706270B0
:1048F000DDE7B1F5A06F7FF47CAF012300220193C7
:104900003DE642F221329142F7D072E76A88002AEE
:104910007FF46FAF3A48CDF804E08900084401788D
:1049200021F0020101702AE600F096F9002800F05B
:10493000EF8008303D4AC4F88400C4F8802000F0BD
:104940008BF9002800F0DE800830374AC9F88C0067
:10495000C9F8882038E700F07FF9002800F0C0800F
:104960000830324AC8F84400C8F8402000F074F912
:10497000002800F0AF8008302B4AC9F84C00C9F875
:10498000482008E700F068F9002800F0CD800830E2
:10499000264AC9F82400C9F8202000F05DF9002853
:1049A00000F0BC800830204AC9F82C00C9F8282043
:1049B000E3E600F051F9002800F09E8008301B4A21
:1049C000C8F86400C8F8602000F046F9002800F03C
:1049D0008D800830144AC9F86C00C9F86820E7E6F1
:1049E000C86B083800F058F904E5486B083800F047
:1049F00053F9F9E4C86A083800F04EF9EEE400BF54
:104A0000C0200740802007408C6A0000C420074077
:104A10000915FF1FC8200740CC200740D0200740C1
:104A20000000FF1F94200740C8004000880040009D
:104A30009D14FF1F906A00001415FF1F0C15FF1F27
:104A40000815FF1F606A083800F026F9C0E4C86F37
:104A5000083800F021F9FDE4486F083800F01CF92F
:104A6000F2E4C86E083800F017F9E7E4486E083839
:104A700000F012F9DCE4C86D083800F00DF9D1E45B
:104A8000486D083800F008F9C6E4C86C083800F032
:104A900003F9BBE4486C083800F0FEF8B0E4D1F844
:104AA0009C00083800F0F8F8ECE4D1F894000838DD
:104AB00000F0F2F8E0E4D1F88C00083800F0ECF8EF
:104AC000D4E4D1F88400083800F0E6F8C8E44FF0E8
:104AD000020EECE62A78C9F8480001322A705AE63C
:104AE0002A78C8F8400001322A703FE72A78C9F8CE
:104AF000680001322A705BE62A78C8F8600001324B
:104B00002A7061E72A78C9F8880001322A705BE6CA
:104B10002A78C4F8800001322A7010E72A78C9F890
:104B2000280001322A7028E62A78C9F820000132CC
:104B30002A7032E7BEF1400FF44628BF4FF0400C18
:104B400004EB0C0302930123CCEB0E004FEA0C485C
:104B50000022019318E500BF2DE9F04100F0D8FFD5
:104B6000314C324B3248DFF8E480324EDFF8E0C09F
:104B7000314F324DDFF8DCE000221A605A609A6053
:104B8000DA601A615A619A61DA611A625A629A624B
:104B9000DA621A635A639A63DA631A645A649A642B
:104BA000DA641A655A659A65DA651A665A669A660B
:104BB000DA661A675A679A67DA67C3F8802021684D
:104BC000C3F8842041F480212160016841F04071E4
:104BD0000160032188F80010A020C3F307218CF89E
:104BE000000004F528343170C3F3074014493870CD
:104BF0001B0E2B70CC34FF238EF80030114D0CF8B7
:104C0000B83C11480B70012306F8083C227070264E
:104C10004FF40014102207F82C3C2E70046081F829
:104C2000F820BDE8F08100BF348004400000FF1F81
:104C300000D800409C200740B0200740B420074027
:104C40001020074035E400E004E100E04421074083
:104C5000402107408020074072B60D480268B2FA32
:104C600082F30B2B10DC4FF00041D94022EA010205
:104C7000026062B6074803EBC303DB00C2180021E1
:104C8000C15010465160704762B60020704700BFA7
:104C9000C409FF1FD003FF1F0D4B0E4AC31AA2FB0E
:104CA00003231B090B2B0CD80B4A127852B972B68E
:104CB0000A484FF00041026821FA03F31A430260E8
:104CC00062B67047064A1278002AF0D0FFF736B96C
:104CD000D003FF1F398EE3380915FF1FC409FF1FDA
:104CE0001415FF1F38B50F4D286878B14388028826
:104CF000C118013393420C7A02D24380204638BD5A
:104D0000FFF7CAFF002320462B6038BD064B1B78F7
:104D10002BB10320FFF7DEF828600028E6D14FF022
:104D2000FF3038BD2815FF1F1415FF1F10B5094CA3
:104D3000206818B143881844007A10BD064B1B78D0
:104D40002BB10320FFF7C6F820600028F2D14FF006
:104D5000FF3010BD2815FF1F1415FF1F044B054A17
:104D60001B6890881BB11A885B88D31A1844704757
:104D70002815FF1F8018FF1F0B4B1B789BB110B528
:104D80000A4C206848B1FFF787FF00230320236007
:104D9000FFF7A0F830B1FFF77FFF0320FFF79AF885
:104DA0000028F8D110BD70471415FF1F2815FF1FEC
:104DB0002DE9F04FDFF8F89083B0012289F8002048
:104DC000019169B3DFF8EC80354F019E8346D8F836
:104DD0000000B0B3334D4488C4F14001B14228BF54
:104DE000314604EB010E00221FFA8EFE2A70761A5D
:104DF000A0F802E000F1080251B1013C22445944FC
:104E00001BF8014B02F8014F8B45F9D1B0F802E0D5
:104E1000BEF13F0F0BD8244A05211170002ED6D1C8
:104E20000198002389F8003003B0BDE8F08F4022DC
:104E3000028001460420FFF7E5F80022C8F80020B0
:104E4000E9E73A7822B3194C164D4FF0010A07E012
:104E5000013C16D02A78A2B900F08AF93A78BAB1A2
:104E60000420FFF755F80728F2D889F800A0FFF7CB
:104E7000F3FEC8F800000028ADD10D4B013C1870BE
:104E8000E8D101234FF0FF302B7003B0BDE8F08F65
:104E900000234FF0FF3089F8003003B0BDE8F08FF9
:104EA0001415FF1F2415FF1F1C15FF1F21480100AB
:104EB0001D15FF1F2015FF1F00B583B002AB012198
:104EC00003F8010D1846FFF773FF03B05DF804FB0C
:104ED00038B50E4D0E4C28680123237028B1408848
:104EE00000232370C0F1400038BD0A4B1B7813B972
:104EF0000020207038BD0420FFF70AF80728F7D8F3
:104F0000FFF7AAFE28600028E9D1F1E72015FF1F6E
:104F10001D15FF1F1415FF1FF8B5114B1B788BB122
:104F2000104E114D346801272F7064B10F4A638809
:104F300000271770214623800420FFF763F83760AD
:104F400000232B70F8BDFFF787FE084B28B1014600
:104F500004201C70FFF756F8F2E71F70F0E700BF5F
:104F60001415FF1F2015FF1F1D15FF1F1C15FF1F08
:104F700038B50E4B1B7873B90D4C216861B103F045
:104F8000FF054B880B800420FFF73CF8256038BDF7
:104F9000084B01221A7038BDFFF75EFE0028F7D0DB
:104FA0000146BDE838400420FFF72CB81D15FF1F4F
:104FB0002015FF1F1C15FF1F08B5FEF761FBFEF74C
:104FC00099FB00F0D5F8FAE700B5064A03681288A5
:104FD0005B6883B001A9ADF804200222984703B0B2
:104FE0005DF804FB606A0000F0B507468BB0002A4C
:104FF00033D0012A08BF0A2251B3212400E0F4B2C1
:10500000B1FBF2F502FB1511C8B2092900F130011C
:1050100098BFC8B20AA988BF3730214488BFC0B240
:1050200001F8240C661E2946002DE8D133B1013C5D
:10503000E4B20AAB23442D2203F8242C3B6801AAD6
:1050400011195B683846C4F1220298470BB0F0BDD5
:1050500030228DF825202124E8E70368C9B21B68B7
:1050600098470BB0F0BD00BF0029BABF49422D23BD
:1050700000230A22FFF7B8BF70B50E4D82B02B682F
:105080000093009E044608E000F072F82B6801933C
:10509000019BA2689B1B934207D2236820469B6911
:1050A00098470028F0DB02B070BD4FF0FF3002B02F
:1050B00070BD00BF3014FF1F10B5044606E02D2B55
:1050C0000CD0092A0AD923685B6998472046FFF764
:1050D000D3FF031EA3F130022046F0DA184610BDBC
:1050E000F8B50D460446FFF7E7FF002823DB00264E
:1050F0003746A842A0F1300209D02D2817D006EB80
:105100008603092A00EB430001D8A0F1300623688A
:1051100020465B6998472046FFF7AEFFA0F13003B9
:10512000092BE6D9A842E4D01FB17042F8BD01278F
:10513000EDE73046F8BD0020F8BD00BF0121FFF7C4
:10514000CFBF00BFFFF718BEFFF7F0BDFFF7CABD26
:10515000FFF704BEFFF7E0BEFFF7BABE08461146F0
:10516000FFF726BE0846FFF7A7BE00BF704700BF87
:1051700038B52C4C237803B138BD01232370FFF7D9
:10518000EDFD002842D100F0A1F900283BD100F04C
:1051900033FA002834D100F0C5FA70BB00F03EFBB2
:1051A00040BB00F0B7FB10BB00F030FCE0B90023BF
:1051B0002370EFF30583002BDED1EFF3108172B67D
:1051C000194B186828B3194C227812BB45691D6029
:1051D000012323700DB3AA6101B962B6002545779A
:1051E000836898472570C7E700F0D8FDDFE700F037
:1051F000D3FDD9E700F0CEFDD3E700F0C9FDCDE740
:1052000000F0C4FDC7E700F0BFFDC0E7FFF7AEFF49
:10521000B9E70029B0D162B638BD054B1D60002941
:10522000DCD1DAE72D15FF1F4018FF1F4418FF1FC0
:105230003C18FF1F30B42948294A2A4B2A4D6024C4
:10524000E121047011701B78284C082B30D00A2BF8
:105250002748284937D00C2B0CBF35225D2212235A
:105260002A60236002600B60234B24491B78244A88
:10527000BBB101230B601360224B23491B78234AE7
:10528000012B26D9042B0FD9082B1ED9102B94BF24
:10529000862387230B6013601D4B01221A7030BCDC
:1052A00070470B601360E7E784230B601360F3E73C
:1052B00000F58E200F490830212213232A60236035
:1052C00002600B60D0E73922F7E785230B6013609B
:1052D000E2E780230B601360DEE700BF0040074079
:1052E00001400740D809FF1F08B003400CB003403D
:1052F00008B00B400CB00B402F15FF1F20B003402F
:1053000020B00B40D909FF1F24B0034024B00B404C
:105310002E15FF1F0A4A0B49136843F4805313608C
:105320000B7843B9084BC0221A70084B80F30C006D
:1053300000B218807047044B80221A70F5E700BF56
:105340002C8004402F15FF1F21C00C4000C00C40D2
:105350000A4A0B49136843F4005313600B7843B9AE
:10536000084BC0221A70084B80F30C0000B2188062
:105370007047044B80221A70F5E700BF2C80044070
:105380002F15FF1F21D00C4000D00C4008B5104C49
:1053900008E0236859050DD423681A050FD4236843
:1053A000DB0411D423685803F3D5FEF76DFE2368A0
:1053B0005905F1D500F09AF823681A05EFD500F0E9
:1053C0002BF92368DB04EDD500F0BCF9EAE700BF58
:1053D0003480044008B5FFF7D9FF00BF014B10220D
:1053E0001A80704700200540704700BF094908B582
:1053F0000B6830B16A461844A2F50052904202D2BE
:105400000860184608BD00F0CBFC0C2303604FF089
:10541000FF3008BDDC09FF1F084A1378802B01D03C
:10542000002070470649074B0748086000211970A3
:105430001378802BFCD00120704700BF03E00740A9
:105440004480044001E0074000002822094A137804
:10545000012B01D00020704703F1804303F5FC23AA
:10546000602119701378802BFCD1034B034A1A601A
:105470000120704703E0074044800440000006021A
:10548000F0B44D1E2E46002400E00134B0FBF2F3D0
:1054900002FB1300092800F130078ABF3730F8B249
:1054A000C0B206F8010F1846002BEED10A1953704E
:1054B0004CB1107815F8016F28700133E01A83425F
:1054C00002F80169F5DB0846F0BC7047054A064B57
:1054D00010781B78C0B2DBB2984238BF4030C01A97
:1054E000704700BF3415FF1F3515FF1FF0B4384B50
:1054F0001A7912F0300F2CD072B6997D01F0FF02AC
:1055000000293DD062B6334F334938780D78334E99
:105510001C46C0B2EDB2431C402BE17928BF0023EA
:10552000AB4202F1FF32C9B21CBFF154184612F06F
:10553000FF02F0D12A4B1B68C2B23A704BB1A842AD
:1055400036BFC5F14005401B40192728C4BF0122C2
:105550001A701F49CA78D2B2150616D452060DD554
:105560001B4B1B795B0609D51E4B1F491B6800228C
:105570000A7003B11A70164B3C22DA70F0BC704707
:105580004022D9795A7462B6E3E70B791C06E5D557
:10559000164B174E1C783378E4B2DBB29C420ED027
:1055A000144D01E0A3420AD00133402B28BF002351
:1055B0000879E85CC0B2C871087D0728F2D9DBB26F
:1055C000034933700B79180644BF7C23CB70C5E7C1
:1055D00000A006403415FF1F3515FF1F7815FF1F6B
:1055E0003015FF1FBC15FF1FB815FF1FC015FF1F8B
:1055F000B915FF1F3815FF1F054A064B10781B7899
:10560000C0B2DBB2984238BF4030C01A704700BF0A
:105610003416FF1FC915FF1FF0B4384B1A7912F06A
:10562000300F2CD072B6997D01F0FF0200293DD0D9
:1056300062B6334F334938780D78334E1C46C0B2CA
:10564000EDB2431C402BE17928BF0023AB4202F1AD
:10565000FF32C9B21CBFF154184612F0FF02F0D15C
:105660002A4B1B68C2B23A704BB1A84236BFC5F193
:105670004005401B40192728C4BF01221A701F494A
:10568000CA78D2B2150616D452060DD51B4B1B791B
:105690005B0609D51E4B1F491B6800220A7003B127
:1056A0001A70164B3C22DA70F0BC70474022D97950
:1056B0005A7462B6E3E70B791C06E5D5164B174E14
:1056C0001C783378E4B2DBB29C420ED0144D01E07A
:1056D000A3420AD00133282B28BF00230879E85CB5
:1056E000C0B2C871087D0728F2D9DBB20349337014
:1056F0000B79180644BF7C23CB70C5E700B0064089
:105700003416FF1FC915FF1FF415FF1FC415FF1F17
:105710003816FF1FC815FF1F3C16FF1F3516FF1F49
:10572000CC15FF1F054A064B10781B78C0B2DBB2C0
:10573000984238BF4030C01A704700BF4416FF1F60
:105740004516FF1F30B42B4B1A7994061FD52A48F3
:10575000DA790378294901333F2B0978C8BF002340
:105760008B42D2B203D0264CD9B2E2540170254A02
:10577000116861B1244A1278D2B2934236BFC2F1A5
:1057800040029B1A9B18272BC4BF01230B70194A98
:10579000D378DBB2180611D45A060DD5154B1B79F8
:1057A0005B0609D5194B1A491B6800220A7003B120
:1057B0001A70104B2C22DA7030BC70471179090630
:1057C000EAD5144910480C780178C9B28C420DD042
:1057D0004A1C272A84BF00210A460F4D054C98BF5A
:1057E000D1B2AA5CD2B2E2710170D5E76C21D1705E
:1057F000D2E700BF00C006404416FF1F4516FF1F3A
:105800007016FF1F4016FF1FB116FF1FB416FF1FB3
:10581000B016FF1FB816FF1F4816FF1F054A064B9C
:1058200010781B78C0B2DBB2984238BF4030C01A43
:10583000704700BFC016FF1FC116FF1F30B42B4BAF
:105840001A7994061FD52A48DA7903782949013351
:105850003F2B0978C8BF00238B42D2B203D0264C1D
:10586000D9B2E2540170254A116861B1244A127814
:10587000D2B2934236BFC2F140029B1A9B18272B2B
:10588000C4BF01230B70194AD378DBB2180611D4B8
:105890005A060DD5154B1B795B0609D5194B1A49CC
:1058A0001B6800220A7003B11A70104B2C22DA70A8
:1058B00030BC704711790906EAD5144910480C78B4
:1058C0000178C9B28C420DD04A1C272A84BF00211E
:1058D0000A460F4D054C98BFD1B2AA5CD2B2E27114
:1058E0000170D5E76C21D170D2E700BF00D006402F
:1058F000C016FF1FC116FF1FEC16FF1FBC16FF1FAF
:105900002D17FF1F3017FF1F2C17FF1F3417FF1F06
:10591000C416FF1F054A064B10781B78C0B2DBB2D5
:10592000984238BF4030C01A704700BF3C17FF1F75
:105930003D17FF1F30B42B4B1A7994061FD52A4808
:10594000DA790378294901333F2B0978C8BF00234E
:105950008B42D2B203D0264CD9B2E2540170254A10
:10596000116861B1244A1278D2B2934236BFC2F1B3
:1059700040029B1A9B18272BC4BF01230B70194AA6
:10598000D378DBB2180611D45A060DD5154B1B7906
:105990005B0609D5194B1A491B6800220A7003B12E
:1059A0001A70104B2C22DA7030BC7047117909063E
:1059B000EAD5144910480C780178C9B28C420DD050
:1059C0004A1C272A84BF00210A460F4D054C98BF68
:1059D000D1B2AA5CD2B2E2710170D5E76C21D1706C
:1059E000D2E700BF00A00E403C17FF1F3D17FF1F6E
:1059F0006817FF1F3817FF1FA917FF1FAC17FF1FDE
:105A0000A817FF1FB017FF1F4017FF1F054A064BBF
:105A100010781B78C0B2DBB2984238BF4030C01A51
:105A2000704700BFB817FF1FB917FF1F30B42C4BCA
:105A30005A6894021FD52B48DA6803782A49013343
:105A40003F2B0978C8BF00238B4204D0274CD2B229
:105A5000D9B2E2540170264A116861B1254A127820
:105A6000D2B2934236BFC2F140029B1A9B18272B39
:105A7000C4BF01230B701A4A9368180202D55268FA
:105A8000110211D45A020DD5154B5B685B0209D582
:105A9000194B1A491B6800220A7003B11A70184B7F
:105AA00000221A6030BC7047164A124910780A78F2
:105AB000D2B290420DD00132272A84BF0020024684
:105AC000114D074C98BFD0B2AA5CD2B2E260087008
:105AD000D8E70E480A4A0024012104601160D1E78A
